:020000040800F2
:10000000D815002079020008C54B0008FD4A0008F9
:10001000C14B000885080008495C0008000000008A
:10002000000000000000000000000000254E000855
:10003000F50D000800000000C94B0008294E00081B
:10004000930200089302000893020008930200083C
:10005000930200089302000893020008930200082C
:10006000930200089302000893020008930200081C
:10007000930200089302000893020008930200080C
:100080009302000800000000930200089302000899
:1000900093020008930200089302000893020008EC
:1000A00093020008794E00089302000893020008AA
:1000B00093020008930200089302000893020008CC
:1000C00093020008930200089302000893020008BC
:1000D0009302000871590008930200089302000877
:1000E000930200089302000893020008930200089C
:1000F0009302000893020008930200080000000029
:1001000000000000930200080000000093020008B5
:100110009302000800000000930200089302000808
:10012000930200089302000893020008930200085B
:100130009302000800000000000000009302000885
:100140009302000893020008000000000000000075
:10015000000000000000000000000000000000009F
:1001600000000000000000000000000093020008F2
:1001700093020008000000000000000000000000E2
:1001800000000000930200080000000000000000D2
:10019000000000000000000000000000000000005F
:1001A0000000000000000000930200089302000815
:1001B0009302000893020008930200080000000068
:1001C0000000000093020008000000000000000092
:1001D000930200089302000800F002F800F03CF8D7
:1001E0000AA090E8000C82448344AAF10107DA4592
:1001F00001D100F031F8AFF2090EBAE80F0013F0A8
:10020000010F18BFFB1A43F00103184730710000BB
:1002100050710000103A24BF78C878C1FAD852074C
:1002200024BF30C830C144BF04680C607047000070
:100230000023002400250026103A28BF78C1FBD8EF
:10024000520728BF30C148BF0B6070471FB506F08A
:10025000A0FF1FBD10B510BD00F052F91146FFF709
:10026000F5FF05F047FE00F070F903B4FFF7F2FF69
:1002700003BC00F073F900000948804709480047B3
:10028000FEE7FEE7FEE7FEE7FEE7FEE7FEE7FEE746
:10029000FEE7FEE704480549054A064B70470000A3
:1002A000654E0008D9010008D80F0020D81500209D
:1002B000D8110020D811002053EA020C00F0698008
:1002C0002DE9F04B4FF00006002B1FBFB3FA83F56A
:1002D00003FA05F424FA05F65E4012BF1643B2FA9B
:1002E00082F502FA05F4C5F120051EBF22FA05FCCD
:1002F00044EA0C04203556EA044C4FEA144418BF73
:10030000641C4FF000084FF00009904271EB030CA1
:1003100039D3002919BFB1FA81F701FA07F6B0FA0B
:1003200080F700FA07F6C7F120071EBF20FA07FC86
:1003300046EA0C062037B6FBF4FCA7EB0507103F96
:1003400007F01F0BCBF120062CFA06F60CFA0BFB7C
:1003500044BFB3460026202FA4BF5E464FF0000BDB
:100360005BEA060C08BF4FF0010B19EB0B0948EBD9
:100370000608ABFB027C06FB02CC0BFB03CCC01BCC
:1003800071EB0C01C1E70B46024641464846BDE809
:10039000F08B13B5084318BF4FF0FF300146AFF3A1
:1003A0000080BDE81C407047431A28BF9A4240F2C3
:1003B0006D801044114410F0030F1EBF11F8013D71
:1003C000521E00F8013D10F0030F7FF4F6AF103A13
:1003D000C0F00A8010B531E9185020E91850103AE1
:1003E000BFF4F9AFBDE81040530724BF31E908104E
:1003F00020E9081044BF51F8043D40F8043D12F0D4
:10040000030F08BF7047D20728BF31F8023D48BF2D
:1004100011F8012C28BF20F8023D48BF00F8012C3C
:1004200070474FF0000200B51346944696462039B7
:1004300022BFA0E80C50A0E80C50B1F12001BFF49D
:10044000F7AF090728BFA0E80C5048BF0CC05DF803
:1004500004EB890028BF40F8042B08BF704748BF51
:1004600020F8022B11F0804F18BF00F8012B7047C5
:1004700070477047704710B500F03AF8006810BD3B
:1004800010B5044600F034F8046010BD10B5203AF1
:10049000C0F00B80B1E81850A0E81850B1E818502F
:1004A000A0E81850203ABFF4F5AF5FEA027C24BF01
:1004B000B1E81850A0E8185044BF18C918C0BDE8EA
:1004C00010405FEA827C24BF51F8043B40F8043BB3
:1004D00008BF7047D20728BF31F8023B48BF11F868
:1004E000012B28BF20F8023B48BF00F8012B7047C2
:1004F000004870473808002000487047380800203E
:100500007546FFF7F9FFAE4605006946534620F0F1
:100510000700854618B020B5FFF7BCFEBDE82040B7
:100520004FF000064FF000074FF000084FF0000BAF
:10053000AC46ACE8C009ACE8C009ACE8C009ACE81E
:10054000C00921F007018D46704710B50446AFF38E
:1005500000802046BDE81040FFF787BE0149182003
:10056000ABBEFEE7260002007047000070B582B007
:1005700004460020019021688A68D20711D14FF605
:10058000C076C7F6FF76886806F17F0210420BD06E
:10059000E06D40F01000E065206E40F00100206644
:1005A000012002B070BD00BF8868304040F00100FB
:1005B000886040F20830C5F200000068000221D4D3
:1005C00001F0B0FC21680A68D20717D1054602E0A5
:1005D0000868C00712D18868C00704D18868304015
:1005E00040F00100886001F09DFC401B2168032859
:1005F000EED30868C007EBD1CAE700BF002002B005
:1006000070BD00BF40F20800C2F20000006842F670
:1006100063518009C0F23E51A0FB0101880900EB43
:1006200040000C2101EB8000019001980028C7D008
:1006300001980138019001980028C1D00198013833
:10064000019001980028BBD00198013801900198D1
:100650000028B5D001980138019001980028E7D111
:10066000AEE700002DE9F0472DED0A8B9FED43AA80
:100670009FED43BA9FED439A40F68C14B0EE408A4A
:100680001F469046894606460025C2F2000440F205
:10069000F51A00BF00EE105AB8EEC00A20EE0A0AA2
:1006A00080EE0B1AB0EE490AF0EE480A404606F01A
:1006B00013F904F1640090EC030A30464946002225
:1006C00000F07EFB384604F01BFA022001F028F906
:1006D00001355545DED1384604F012FA97ED02CACD
:1006E0009FED289A4FF4FA7500EE105AB8EEC00A42
:1006F00020EE0A0A80EE0B1AB0EE490AF0EE480A24
:10070000404606F0E9F804F1640090EC030A304634
:100710004946002200F054FB384604F0F1F902206B
:1007200001F0FEF8013D681CDED1384604F0E8F91E
:100730009FED140A97ED028AF0EE400AB0EE401ADF
:10074000404606F0C9F804F1640090EC030A304614
:1007500049460022002500F033FBC82001F0E0F8F4
:10076000B4EE48CAF1EE10FAB8BF01252846C8F821
:10077000DC50BDEC0A8BBDE8F08700BFDB0FC94041
:100780000000FA4300000000B0B52DED0E8B0025EF
:10079000044680ED0B0AC0F8DC50C0E91955C0E9E9
:1007A0001B55C0E91D5580ED3F0A10EE100AB0EE52
:1007B000638AB0EE43DAB0EE629AB0EE42BAB0EEBF
:1007C00061AAB0EE41CAB0EE60EA06F071FC9FED9E
:1007D000260B53EC102B06F06DFB06F0DFF9C4E995
:1007E0003D5049F69A10C3F69970C4F8CC001DEE3E
:1007F000100A84ED42EAC4E92655C4E92855C4F834
:10080000A850C4E92C55C4E93955C4E93B5584EDD9
:1008100032DA06F04DFC9FED160B53EC102B06F070
:1008200049FB9FED150B02460B4651EC100B06F0F1
:10083000E7F906F0B3F99FED120A2CEE0A1A80EEE2
:10084000010A84ED358AC4F8D00084ED30BA84ED15
:10085000319A84ED08CA84ED09AA84ED0A0ABDEC38
:100860000E8BB0BD00BF00BF9A9999999999B93F75
:100870008E603EB4EACEBA3F000000000000F03FB8
:100880003333533AFEE700002DE9F04F85B040F6D0
:10089000000B40F6D8678046C4F6000B00254FF0E9
:1008A000FF39C2F2000704AC03AE4FF0000A029118
:1008B00018F81A000022C100400980308DF810009D
:1008C0008DF8111058464021ADF81250039501F0F3
:1008D00023FB3846214632460423CDF8009002F02F
:1008E000F7FB58464021012201F016FBBDF80E002F
:1008F000029900BA000C21F81A000AF1010ABAF1B3
:10090000160FD5D102990024488900224008488555
:1009100098F810000394C10040098DF810004FF4BE
:1009200044508DF81110ADF812005846402101F0E6
:10093000F3FA40F6D867C2F200070DF1100A0DF184
:100940000C094FF0FF36384651464A4604230096BC
:1009500002F0BEFB58464021012201F0DDFA98F872
:1009600012000022C10040098DF810004FF44070C1
:100970008DF81110ADF8120058464021039401F093
:10098000CBFA04A903AA38460423009602F0A0FB80
:1009900058464021012201F0BFFA98F818000022C1
:1009A000C10040098DF810008DF811105846402103
:1009B000ADF81240039401F0AFFA04A903AA384637
:1009C0000423009602F084FB58464021012201F0E6
:1009D000A3FA98F81A000022C10040098DF810000F
:1009E0008DF8111058464021ADF81240039401F0E3
:1009F00093FA04A903AA38460423009602F068FB80
:100A000058464021012201F087FA98F81C00002284
:100A1000C10040098DF810008DF811105846402192
:100A2000ADF81240039401F077FA04A903AA3846FE
:100A30000423009602F04CFB58464021012201F0AD
:100A40006BFA98F820000022C10040098DF81000D0
:100A50004FF4BA408DF81110ADF8120058464021FD
:100A6000039401F059FA04A903AA38460423009616
:100A700002F02EFB58464021012201F04DFA98F871
:100A800022000022C10040098DF810004FF4E06000
:100A90008DF81110ADF8120058464021039401F072
:100AA0003BFA04A903AA38460423009602F010FB7F
:100AB00058464021012201F02FFA98F82400002224
:100AC000C10040098DF810004FF488508DF81110C6
:100AD000ADF8120058464021039401F01DFA04A914
:100AE00003AA38460423009602F0F2FA5846402141
:100AF000012201F011FA98F826000022C1004009F5
:100B00008DF810004FF400608DF81110ADF8120050
:100B100058464021039401F0FFF904A903AA38467E
:100B20000423009602F0D4FA58464021012201F035
:100B3000F3F9002518F815000022C10040098030A3
:100B40008DF810008DF8111058464021ADF8124074
:100B5000039401F0E1F9384651464A4604230096D1
:100B600002F0B6FA58464021012201F0D5F9BDF84D
:100B70000E00029900BA000C21F815000135162D5F
:100B8000D8D1029948894008488505B0BDE8F08F62
:100B90002DE9F04383B0064690F820000D46002969
:100BA0004FEAC0014FEA501040F6000400F1800007
:100BB000C4F6000418BF01258DF808008DF809104F
:100BC0000027204640210022ADF80A70019701F06D
:100BD000A3F940F6D869C2F200094FF0FF3802A924
:100BE00001AA48460423CDF8008002F071FA20469D
:100BF0004021012201F090F99DF8060096F820208E
:100C00009DF8071000F0FB0040EA8500D300520970
:100C10008DF808208DF80A008DF80B102046402131
:100C200000228DF80930019701F076F902A901AA96
:100C300048460423CDF8008002F04AFA20464021BD
:100C4000012201F069F903B0BDE8F0832DE9F04F0E
:100C500083B040F600080C460546C4F6000800279D
:100C60000DF108090DF1040A4FF0000B4FF0FF36AB
:100C700015F81B000022C100400980308DF80800E3
:100C80008DF8091040464021ADF80A70019701F037
:100C900043F940F6D860C2F20000494652460423A8
:100CA000009602F015FA40464021012201F034F985
:100CB000BDF8060000BA000C24F81B000BF1010B74
:100CC000BBF1160FD4D160894008608503B0BDE840
:100CD000F08F00002DE9F04784B00646007E1746ED
:100CE000C200400940F600048DF80C00080AC4F662
:100CF00000048DF80D208DF80E008DF80F104FF0C8
:100D0000000A2046402100221D46CDF808A001F02F
:100D100003F940F6D868C2F200084FF0FF3903A982
:100D200002AA40460423CDF8009002F0D1F92046F3
:100D30004021012201F0F0F8B07E0022C1004009FC
:100D40008DF80C00380A8DF80D108DF80E00204635
:100D500040218DF80F70CDF808A001F0DDF803A94F
:100D600002AA40460423CDF8009002F0B1F92046D3
:100D70004021012201F0D0F8307F0022C10040095B
:100D80008DF80C00280A8DF80D108DF80E00204605
:100D900040218DF80F50CDF808A001F0BDF803A94F
:100DA00002AA40460423CDF8009002F091F92046B3
:100DB0004021012201F0B0F804B0BDE8F087000046
:100DC000498D02EE101AB8EE422A22EE000ABDEE5C
:100DD000C00A10EE101A22EE200ABDEEC00A10EE74
:100DE000102A22EE010ABDEEC00A10EE103AFFF7FB
:100DF00071BF000070470000EFF3108072B600BFB3
:100E0000FEE7000070B582B090F85820012A03D1A7
:100E10000221084602B070BD0022019200920268D1
:100E2000B2F1A04F30D140F208324FF6006C4FF6CD
:100E30000055C5F20002CFF6FF7CCFF6FF7552F8E1
:100E40000C40535923435B071ED4D1F800E01368CC
:100E5000BEF1000F23F4604422D04B6890F8386054
:100E600043EA463323431360535952F80C6033432B
:100E7000DB0723D1136840F61F768968B343194313
:100E800041EA0E0117E000BFC16D41F02001C165CC
:100E90000121002280F85820084602B070BD00BF32
:100EA0001460515952F80C301943C90708D1116820
:100EB00040F61F73994311600021EAE70021E8E73B
:100EC0000021E6E7F0B581B00022009290F85820AA
:100ED000012A03D10221084601B0F0BD01230768B1
:100EE00080F85830BB685B0736D4D1E900531F2621
:100EF000C3F3012407EB8404226B03F01F039E401D
:100F0000B243C5F3846606FA03F31A432263BA6850
:100F1000BB6802F0040203F00803D21840F0BD8061
:100F20000A6807F114030426C2F34064D1F808E00C
:100F300006EAD25C53F82450C2F304540722A240BC
:100F4000BEF1004F25EA02050CD143F80C501A6897
:100F500042F000430EE000BFC16D41F02001C165C9
:100F6000012182E10EFA04F22A4343F80C201A68A8
:100F700022F000437B61D1E90434FD68042B5FD18A
:100F80003A6E3A6E0B68C2F3846293FAA3F6C3F327
:100F9000846C6FF3DF43B6FA86F5002B2C464FF6D0
:100FA000FF7E08BF6446A242C0F2070E0CD13A6E23
:100FB00022F000423A660A6802EA0E03C2F3846C29
:100FC00092FAA2F2B2FA82F57A6E7A6E002BC2F32E
:100FD00084622C4608BF6446A2420CD17A6E22F08D
:100FE00000427A660A6802EA0E03C2F3846C92FA3F
:100FF000A2F2B2FA82F5BA6EBA6E002BC2F3846224
:101000002C4608BF6446A2420CD1BA6E22F00042C0
:10101000BA660A6802EA0E03C2F3846C92FAA2F27C
:10102000B2FA82F5FA6EFA6E002BC2F3846208BF40
:101030006546AA4231D1FA6E22F00042FA662CE0EF
:10104000062202EA95020E6807F1600504FA02FC26
:1010500055F823404FF20002C0F2FF3206F0F84686
:10106000224046EA0C06324342F0004245F8232073
:101070000A698B6955F8226026F08076334345F87B
:1010800022300A690B7F55F82260012B26F000768A
:1010900008BF06F1007645F82260BA68D20750D141
:1010A0000C68CA68D7F8B06023466FF3DF4326EABE
:1010B000030C4FF6FF7602F01805C0F20706EE406B
:1010C00000252640C4F27F0546EA0C06AA42C7F86E
:1010D000B06036D193B194FAA4F2B2FA82F201323E
:1010E00002F01E03092B02F01F0310D801229A40C0
:1010F00003EB430342EA035315E000BF012202EB76
:10110000946202F01E030A2B02F01F03EED30122A9
:1011100000269A4003EB4303CFF6206606EB035309
:101120001A4342F00073C3F3406607EB86068A68F1
:101130007569C3F3045307249C40A5439A402A438E
:10114000726109680022C8F20802114254D040F2CC
:10115000083CC5F2000CDCF800300022CCF2213251
:10116000914203F0E07404D01022C9F2C00291420F
:1011700044D119024FF0000177D4B7F1A04F74D1D8
:10118000DCF8001042F6635221F0E071214341F493
:101190000001CCF8001040F20801C2F20001096819
:1011A000C0F23E528909A1FB0212910901EB4101F3
:1011B0000C2202EB81010091009900293CD000BF74
:1011C0000099013900910099002947D0009901390F
:1011D00000910099002943D00099013900910099AC
:1011E00000293FD0009901390091009900294FF062
:1011F0000001E5D139E000BF002136E00022CCF249
:101200005272914208BF13F0807217D00022CCF6C0
:10121000843291424FF0000108BF13F4800224D1C0
:10122000ACF50272974220D0DCF8001021F0E0719A
:10123000214341F480010CE0002116E0ACF502717D
:101240008F4211D0DCF8001021F0E071214341F011
:101250008071CCF80010002107E000BF002104E0FD
:10126000002102E0002100E00021002280F8582047
:10127000084601B0F0BD00000068006C7047000037
:10128000B0B582B00446002001904CB1E06D58B179
:1012900021688868800012D48868C00019D54CE0A5
:1012A000012002B0B0BD00BF204600F009F90020C7
:1012B000206684F85800216888688000ECD588682A
:1012C0004FF6C072C5F6FF72104088608868C00093
:1012D00033D44FF6C0728868C5F6FF7202F18052AF
:1012E000104000F18050886040F20800C2F2000017
:1012F000006842F663528009C0F23E52A0FB02022F
:101300009009022202EB400001900198A8B100BFB1
:10131000019801380190019878B101980138019045
:10132000019850B1019801380190019828B10198B5
:101330000138019001980028EAD18868C00009D4DA
:10134000E06D40F01000E065206E40F00100206686
:10135000012000E000208A68E36D02F0040203F03F
:101360001003D218E26D71D122F481720232E2656B
:101370008A68D2071AD140F2083C4FF600534FF664
:101380000062C5F2000CCFF6FF73CFF6FF725CF877
:1013900003305CF802201A43D20707D16268DCF8F8
:1013A000003023F47C131A43CCF80020627FE36BF7
:1013B00043EA4232D4E902C31A4394F8243042EAA1
:1013C0000C02012B42EA034207D1D4F828C00023C3
:1013D000CFF6FE7303EB4C431A43E36A33B1D4F800
:1013E00030C003F4787343EA0C031A43D1F80CC0FD
:1013F00044F20703CFF6F07303EA0C031A43CA6002
:101400000A69636B22F040621A430A618A68120714
:1014100045D494F83820237F520042EA833CCB68BD
:1014200044F2020223EA020242EA0C02CA60226982
:101430000B698AB143F480330B61D1F8C0C043F625
:10144000FF732CEA03031A430EE000BF42F01001C1
:101450000120E16502B0B0BD23F480320A61D1F809
:10146000C02043F6FF739A43C1F8C02094F840307F
:101470000A69012B10D140F2FD7322EA030CD4E972
:101480001132D4E913E543EA0C031A4342EA0E028F
:101490002A4342F0010201E022F001020A6162697E
:1014A0000B6B012A23F00F0202D1236A013B1A437E
:1014B0000A63E16D012262F30101E16502B0B0BD92
:1014C00010B598B0044600201790CDE91500CDE97D
:1014D000130002A84421FEF7A4FF206840F2001187
:1014E000C5F20001884231D0B0F1A04F7DD14FF458
:1014F000004002904FF00050119002A800F064FEEE
:10150000002818BFFFF778FC40F69821C2F20001CE
:101510000A6841F24C00C4F20200531C0B6042B94D
:10152000016841F400510160016801F4005101912A
:101530000199016841F002010160006800F00200B9
:10154000019001980320CDE9130045E04FF40040DD
:1015500002904FF00050119002A800F035FE0028D4
:1015600018BFFFF749FC40F69822C2F20002136848
:1015700040F2004041F24C01C4F60000C4F2020106
:101580005C1C146043B90A6842F400520A600A689D
:1015900002F400520192019A0A68032442F0040204
:1015A0000A600A6800F5806002F004020192019A64
:1015B0000A6842F002020A60096801F00201019122
:1015C0000199102113910021159113A9149400F091
:1015D000C5FB0420CDE913040020159040F2004023
:1015E000C4F6000013A900F0B9FB18B010BD00004C
:1015F0002DE9F04740F208390446C5F20009D9F850
:101600000000D4F818800D46B8F1080F00F01F0A4A
:1016100002D1082712E000BFBAF1090F00F28A8058
:10162000012000FA0AF040F22121084200F08280F5
:101630002068C068C00740F08380042700F072FC77
:1016400021680A683A4241D0E06D40F40070E065DC
:10165000C86810F4406F0FD1607F68B90868000750
:101660000AD5E06D20F48070E065E06DC00403D41D
:10167000E06D40F00100E065A9F502708142084686
:1016800008BF4FF0A0400246BAF1090F08BF0A4652
:10169000BAF1050F08BF0A46BAF1000F08BF0A46A3
:1016A000884208BF0246D068B8F1080F04D108206C
:1016B00008600020BDE8F087400444BF0020BDE87A
:1016C000F0870C2008600020BDE8F0870646681C03
:1016D0002BD065B900F026FC2168086838420FD08D
:1016E00008683842F6D0AFE708683842ACD100F05D
:1016F00019FC801B2168A842F6D908683842F3D14A
:10170000E06D40F00400E065002084F858000320FC
:10171000BDE8F0870868384296D1086838427FF4FF
:1017200093AF086838427FF48FAF08683842F1D031
:101730008AE700BFD9F8000010F4604F3FF47DAF96
:10174000E06D40F02000E0650120BDE8F08700007A
:1017500070B540F20015C5F200050446D5F80862E0
:1017600000688068400703D494F85800012801D12C
:10177000022070BD012084F858002046FEF7F6FED6
:1017800020B1002184F8581070BD00BF2068E16DC1
:1017900040F60173994306F01F0201F58076014679
:1017A000A84208BF4FF0A0410B1AB3FA83F35B09BC
:1017B000E66500D11AB9E66D26F48016E665E56D9A
:1017C0000026ED044FF0000544BF256E25F0060508
:1017D00025661C25056084F8586043B9092A19D884
:1017E000012303FA02F240F221231A4212D0C16807
:1017F000890104D5E16D012262F30D31E165816853
:101800004FF6C072C7F6FF721140043181600020AC
:1018100070BD00BFE06D40F48010E065C8688001D5
:101820005CBF002070BDE06D012161F30D30E0650B
:10183000002070BD80B5014690F82500022825D112
:101840000868D1E910CE8A6C036823F00E030360A8
:10185000136823F480731360026822F001020260AF
:101860000EF01F00012202FA00F0CCF80400D1E9CA
:1018700013205060486D68B1026822F480720260E3
:10188000D1E916024260002005E000BF0420C863D1
:10189000012000E00020012281F82520002281F8AB
:1018A000242080BD80B590F8251002292ED1016832
:1018B000D0E910CE826C0B6823F00E030B600B682E
:1018C00023F001030B60116821F4807111600EF0A8
:1018D0001F02012101FA02F2CCF80420D0E91332F0
:1018E0005A60426D32B1136823F480731360D0E9FB
:1018F0001623536080F82510826B002180F8241095
:101900000AB190470021084680BD00BF0421C16391
:101910000121002280F8251080F82420084680BD8F
:10192000B0B5044600F0FEFA054640F20000C2F2EF
:1019300000004068611C18BF044400BF00F0F2FAC8
:10194000401BA042FAD3B0BD10B590F85C30013B0B
:10195000012B69D8006811F0070ED0F858C00CF0C0
:10196000010300D01BB311F0380F02D01CF00204A9
:101970001DD011F4E07F02D01CF0040417D011F444
:10198000F05F02D01CF0080411D011F4604F02D0B7
:101990001CF010040BD011F4403F02D01CF02004C6
:1019A00005D011F47C0F06D01CF0400403D1C46DA7
:1019B00044F00104C465BEF1000F18BF002B3BD1F9
:1019C00011F0380F18BF1CF0020335D111F4E07F7D
:1019D00018BF1CF004032FD111F4F05F18BF1CF0E6
:1019E000080329D111F4604F18BF1CF0100323D154
:1019F00011F4403F18BF1CF020031DD111F47C0FDF
:101A000018BF1CF0400317D10B061BD4CB0504D51F
:101A1000D0F8E0301A43C0F8E02000F15402002072
:101A200013681943116010BD00F16002012002210A
:101A300013681943116010BDC36D43F00203C36501
:101A40000B06E3D5D0F8DC301343C0F8DC30CB050F
:101A5000E3D5DDE770B5D8B1044690F85C0028B94D
:101A6000002084F85D00204600F018F920688169A4
:101A700021F01001816100F055FA05462068816966
:101A8000090707D500F04EFA401B0B28F6D312E0E9
:101A9000012070BD816941F00101816100F042FACD
:101AA000054600BF21688869C0070DD100F03AFAE9
:101AB000401B0B28F6D3206E032140F00100206666
:101AC000012084F85C1070BD4AF200408A69C4F2BB
:101AD0000000A0F5804342F0020299428A6105D1DC
:101AE00062684CF20013CFF6FF73C250227C8B6900
:101AF000012A23F0400318BF40338B61627C8B695D
:101B0000012A23F4804308BF03F580438B61A27C44
:101B10008B69012A23F4805318BF03F580538B612E
:101B20008A69D4E902E322F4407545EA0E058D6125
:101B30008D6925F0A4058D610D6925F010050D61F5
:101B4000A3B1012B0ED0022B09D08D69032B45F0D8
:101B500080058D610D6945F010050D6106D12023CA
:101B600001E000BF04238D692B438B61D4E9053567
:101B7000D4E907266FF0FF0C013D0CEB022242EA8C
:101B80004562751E2A430025CFF6FF7505EB03431A
:101B90001A43BEF5407FCA6110D1D4E909E3D4E904
:101BA0000B62013B0CEB062633436FF00F0606EB8E
:101BB00002121A4305EB0E431A43CA6004F13406BD
:101BC0004CCED1F8C0502E43C1F8C0602064D1F88B
:101BD00080604AF2704526F4F816C4F2000546EA21
:101BE0000242C1F880206564D1F8802022F0706242
:101BF00042EA0362C1F8802005F14001A16405F5C5
:101C00008C71E16405F5F871216505F50271616576
:101C1000002105F5037200BFC0E90011C0E90211FF
:101C2000C0E90411C0E90611C0E90811C0E90A11B0
:101C3000C0E90C11C0E90E11C0E91011C0E9121180
:101C4000C0E91411C0E91611C0E91811C0E91A1150
:101C5000C0E91C11C0E91E11C0E92011C0E9221120
:101C6000C0E92411C0E92611C0E92811C0E92A11F0
:101C7000C0E92C11C0E92E11C0E93011C0E93211C0
:101C8000C0F8D010904200F1D400C5D3002001214B
:101C9000A065206684F85C1070BD000010B596B099
:101CA0000446684604304021FEF7BBFB206846F23C
:101CB0000041C4F20001884202D016B010BD00BF3E
:101CC0004FF4805000904FF000700C90684600F088
:101CD0007BFA002818BFFFF78FF841F24C00C4F2DE
:101CE0000200C16841F00071C160C16801F000717B
:101CF00011911199016841F002010160006811A978
:101D000000F00200119011984FF4407011900220E1
:101D1000129000201390032014900920159040F297
:101D20000040C4F6000000F019F816B010BD000025
:101D300090F85C1001290BD1022180F85C10016839
:101D40008A6922F001028A61002101660846704713
:101D5000016E41F004010166012070472DE9F04F4A
:101D600082B00D68002D00F0CB8041F2004400F1FC
:101D70003847C4F6000406224FEAB726A04208BF3F
:101D80000522052E38BF4FEAB722002401274FF065
:101D9000000E0026009209E00D68013635FA06F2C1
:101DA0000EF1040E04F1020400F0AA8007FA06FB0B
:101DB00015EA0B08F0D0D1F804A003220AF0030CB6
:101DC000ACF10105A240012D6FEA020910D882682A
:101DD000CD6802EA0902A5402A4382604268CAF33C
:101DE000001522EA0B02B5402A43426006E000BF1C
:101DF000BCF1030F02D14FF0030C21E0C2688D68E3
:101E000002EA0902A5402A43BCF1020FC26017D1C1
:101E10006FF0030202EA560202440EF01C030F2583
:101E2000D2F820C005FA03FA0D692CEA0A0C05FA6B
:101E300003F343EA0C031362D1F804A00AF0030C85
:101E400002680CFA04F302EA09021A431AF4403F4A
:101E50000260A1D041F26003C4F202031A6840F2AA
:101E6000004942F001021A601A68C4F2010902F046
:101E700001020192019A26F003024FF6084A4A44F1
:101E8000CFF6FF7A52F80AC00EF00C050F23009F20
:101E9000AB402CEA030307FA05F52B4342F80A305E
:101EA000D9F808C04B684CEA0805DA0258BF2CEA9A
:101EB000080540F20C4CC9F80850C4F2010CDCF8DB
:101EC00000209F0242EA080558BF22EA0805CCF824
:101ED0000050D9F804209D0342EA080758BF22EABF
:101EE0000807C9F80470D9F80020DB0342EA0807A4
:101EF00058BF22EA0807C9F8007001274CE700BF65
:101F000002B0BDE8F08F0000426902EA010391438C
:101F100041EA0341816170471823002A08BF282342
:101F2000C150704740F6D470C2F20000006870479C
:101F300040F2000040F6D471C2F20000C2F200018B
:101F400040680A68104408607047000080B50320AC
:101F500000F08CF8002000F009F800281CBF0120D8
:101F600080BD00F029F8002080BD000070B540F26F
:101F70000006C2F200067168E1B1044640F20800B2
:101F8000C2F200004FF47A720068B2FBF1F1B0FBCC
:101F9000F1F001F023FA0F2C4FF0010508D838B901
:101FA0004FF0FF3021460022002500F033F8346066
:101FB000284670BD012070BD82B041F25800C4F2C5
:101FC0000200816841F001018160816801F0010136
:101FD00001910199016841F080510160006800F0B1
:101FE00080500090009802B000F0E4B8002848BF8C
:101FF0007047C1B200F01F00012202FA00F04EF259
:102000000012CEF2000242EAD10121F00301086081
:102010007047000010B54EF60C5CCEF2000CDCF8F8
:102020000030C3F3022E8EF00704042C28BF0424D2
:10203000BEF103034FF0FF3E0EFA04F438BF002355
:10204000A14399400EFA03F39A43114300F00F02A3
:1020500000F160430901043A03F564436244002837
:1020600048BF02F10C03197010BD00004EF60C5170
:10207000CEF200010A684FF6FF031A4060F30A220D
:1020800042F0806040F0FD7008607047B0F5007F5E
:1020900042D0002840F0808047F21400C4F20000D3
:1020A00050F8141CC26E01F4C06122F48072B1F5C4
:1020B000806FC2662ED150F8141C012262F34A21AF
:1020C00040F8141C40F20801C2F2000109683222F3
:1020D00051434DF68362C4F21B32A1FB0212910CF4
:1020E0000268520511D54A1C0FD0026852050CD562
:1020F00059B10268520508D5012906D00268520577
:1021000003D50229A1F10401EAD10068400544BFCA
:10211000032070470020704747F21400C4F200000B
:1021200050F8141CC26E01F4C06142F48072B1F523
:10213000806FC266EED150F8141C012262F34A216E
:1021400040F8141C40F20801C2F200010968322272
:1021500051434DF68362C4F21B32A1FB0212910C73
:102160000268520511D54A1C0FD0026852050CD5E1
:1021700059B10268520508D5012906D002685205F6
:1021800003D50229A1F10401EAD10068400544BF4A
:1021900003207047BEE700BF47F21400C4F20000FE
:1021A00050F8141C022262F34A2140F8141C00204B
:1021B0007047000047F20800C4F20000016841F4D3
:1021C00080410160704700002DE9F04182B0044673
:1021D000807841F288060007C4F2020602D400208B
:1021E0002FE000BF56F8300C10F080580BD156F895
:1021F000300C40F0805046F8300C56F8300C00F0AF
:1022000080500190019847F20007C4F20007386837
:1022100040F480703860FFF785FE05463868C005D9
:1022200000F1D680FFF77EFE401B0228F6D903207E
:10223000B8F1000F05D156F8301C21F0805146F856
:10224000301C2168CA0713D18A0719D44A071FD442
:102250000A0725D48A062BD44A0631D40A0637D475
:10226000CA053DD48A0543D44A0549D457E000BF86
:102270003268636822F003021A4332608A07E5D5A8
:102280003268A36822F00C021A4332604A07DFD595
:102290003268E36822F030021A4332600A07D9D567
:1022A0003268236922F0C0021A4332608A06D3D50D
:1022B0003268636922F440621A4332604A06CDD51F
:1022C0003268A36922F440521A4332600A06C7D525
:1022D0003268E36922F440421A433260CA05C1D52C
:1022E0003268236A22F440321A4332608A05BBD531
:1022F0003268636A22F440221A4332604A050ED5DE
:102300003268A36A22F440121A43B3F5801F326088
:1023100005D156F87C2C42F4801246F87C2C0A0534
:102320000ED53268E36A22F440021A43B3F5800FF7
:10233000326005D156F87C2C42F4801246F87C2C91
:10234000CA040ED53268236B22F040721A43B3F1EF
:10235000807F326005D156F87C2C42F4801246F81A
:102360007C2C8A040ED53268636B22F040621A43DB
:10237000B3F1006F326005D156F87C2C42F4801224
:1023800046F87C2C4A040ED53268A36B22F04062DA
:102390001A43B3F1006F326005D156F87C2C42F439
:1023A000801246F87C2C09040ED53168E26B21F0CE
:1023B00040511143B2F1805F316005D156F87C1C69
:1023C00041F4803146F87C1C02B0BDE8F08100BFCA
:1023D000B06810F4407010D0216C88420BD0B06807
:1023E000B16820F4407041F48031B160B16821F4EB
:1023F0008031B160B060C0070CD1B068216C20F4AE
:1024000040700843B0600020B8F1000F7FF419AFAE
:1024100011E700BFFFF786FD054641F2883700BF90
:10242000B0688007E9D4FFF77DFD401BB842F7D9BB
:10243000FDE600002DE9F04700286DD042F2000AC9
:10244000C4F2020A0446DAF800000D4600F00F005C
:1024500088420CD2DAF8000020F00F002843CAF8B6
:102460000000DAF8000000F00F00A84254D1216803
:1024700041F20808C807C4F2020803D1880740F1F6
:10248000D880BDE0606802283AD0032840D158F8CF
:10249000082C920140D5D8F80420D8F8043042F234
:1024A0000046C3F3031302F00302D8F804700133AB
:1024B000C0F2F406032A04BF41F20026C0F27A06F5
:1024C000B6FBF3F2D8F80430C7F306277A43C3F318
:1024D0004163022707EB4303B2FBF3F24BF20043E5
:1024E000C0F2C4439A4261D9D8F8002012F0F00F2C
:1024F00051D089075AD5A168002957D14BE000BFB8
:1025000058F8081C89035CBF0120BDE8F08707E08C
:1025100058F8081C490503D40120BDE8F08700BF26
:10252000D8F8001001F00C0104293FD0D8F80010B1
:1025300001F00C01082939D0D8F8001001F00C0185
:102540000C2933D1D8F80410D8F8042042F20047FF
:10255000C2F3031201F00301D8F804300132C0F2D3
:10256000F407032904BF41F20027C0F27A07B7FB42
:10257000F2F1D8F80420C3F306235943C2F34162B1
:10258000022303EB4202B1FBF2F14BF20042C0F234
:10259000C44291420AD9D8F80010082262F3071108
:1025A0004FF00109C8F8001002E000BF4FF0000929
:1025B000D8F8001021F003010843C8F80000FFF725
:1025C000B1FC064641F28837D8F80000616800F097
:1025D0000C00B0EB810F07D0FFF7A4FC801BB842C2
:1025E000F2D90320BDE8F0872168880708D4B9F143
:1025F000000F1ED0D8F8000020F0F00017E000BF58
:10260000480705D5D8F8000040F4E060C8F800009D
:10261000080706D5D8F80000072262F30D20C8F895
:102620000000D8F80000A26820F0F0001043C8F8BD
:102630000000DAF8000000F00F00A8421BD9DAF819
:10264000000020F00F002843CAF80000FFF76AFCE2
:10265000064641F2883700BFDAF8000000F00F00AC
:10266000A84207D0FFF75EFC801BB842F4D90320D4
:10267000BDE8F0872168480707D5D8F80000E26870
:1026800020F4E0601043C8F80000080708D5D8F827
:102690000000216920F4605040EAC100C8F8000041
:1026A000D8F8000042F20041C0F2F40100F00C0042
:1026B000042808462DD0D8F8000000F00C000828A7
:1026C00041F20020C0F27A0023D0D8F8002002F0B6
:1026D0000C020C2A1CD1D8F80420D8F8043002F0DF
:1026E0000302C3F30313D8F804700133032A08BFAD
:1026F0000146B1FBF3F0D8F80410C7F30627C1F385
:1027000041610222784302EB4101B0FBF1F000E0AD
:102710000020D8F8001047F2AA22C1F30311C0F636
:102720000002515C40F2080201F01F0120FA01F1A1
:1027300040F20000C2F200000068C2F20002116024
:10274000BDE8F047FFF712BC40F2080041F2080173
:10275000C2F20000C4F202010068096847F2BA221E
:10276000C1F30221C0F60002515C01F01F01C84014
:102770007047000040F2080041F20801C2F2000078
:10278000C4F202010068096847F2BA22C1F3C2210B
:10279000C0F60002515C01F01F01C8407047000004
:1027A00080B541F20C01C4F2020151F8040C42F26E
:1027B0000042C0F2F40200F00C000428104608BFEA
:1027C00080BD51F8040C00F00C00082841F20020F4
:1027D000C0F27A0022D051F8043C03F00C030C2B19
:1027E0001CBF002080BDD1F800C00B680CF0030CAA
:1027F000C3F3031E0B680EF1010EBCF1030F08BFFB
:1028000002460968B2FBFEF0C3F30623C1F341613F
:102810000222584302EB4101B0FBF1F080BD000001
:102820002DE9F04182B0002800F0068104460078CE
:1028300041F20006C007C4F2020655D12078800795
:1028400074D42078000700F197802078400700F1C9
:10285000B7802078800600F10781E569002D00F03F
:102860003082B06800F00C000C2840F05981012D36
:1028700000F0E280F068216A00F003028A4240F032
:10288000DB80626A6FF00F0300F0F00103EB0212CD
:10289000914240F0D180A16A00F4FE42B2EB012FD8
:1028A00040F0CA80E16A00F07842B2EBC16F40F0BC
:1028B000C380226B0023CFF6E07303EA025200F4D8
:1028C000C001A2F50012914240F0B680616B4FF05A
:1028D0007E4202EA016100F0C06001F17E4188425F
:1028E00040F0AA80EDE100BFB06800F00C01F06894
:1028F00008295BD0032281F00C0122EA0000084481
:10290000B0FA80F0400951D16068B0F5803F07D03F
:10291000B0F5A02F40F0DA80306840F480203060BD
:10292000306840F480303060DBE000BFB068F168B0
:1029300000F00C00042869D001F0030180F00C00C5
:1029400081F002010844B0FA80F040095ED1E168EC
:102950003068002900F0D28040F480703060FFF7CA
:10296000E1FA05463068400500F1FC80FFF7DAFA2D
:10297000401B0228F6D92EE16169D6F8940000299F
:1029800000F0908040F00100C6F89400FFF7CAFA0A
:10299000054600BFD6F8940080073FF556AFFFF715
:1029A000C1FA401B0228F5D915E100BF3068800349
:1029B0007FF544AF606800287FF440AF3CE000BF83
:1029C000B06D10F0805808D1B06D40F08050B06507
:1029D000B06D00F080500190019847F20007C4F2FA
:1029E00000073868C0052BD4386840F48070386020
:1029F000FFF798FA054600BF3868C00520D4FFF7F6
:102A000091FA401B0228F7D9E5E000BF3068400585
:102A100001D5E06880B17068216920F0FE4040EA8D
:102A20000160706040F20000C2F200000068FFF731
:102A30009DFA00283FF405AF012002B0BDE8F08107
:102A4000A068012808D0052840F0AA80D6F8900098
:102A500040F00400C6F89000D6F8900040F0010065
:102A6000C6F89000A9E000BFA169D6F89800002937
:102A700000F0808040F00100C6F89800FFF752FA9D
:102A8000054600BFD6F8980080073FF5E6AEFFF791
:102A900049FA401B02284FF00300F3D902B0BDE809
:102AA000F08100BF20F00100C6F89400FFF73AFA69
:102AB000054600BFD6F8940080077FF5C6AEFFF745
:102AC00031FA401B0228F5D985E000BF31680028A3
:102AD00021F480313160316821F48021316000F0CF
:102AE0007F80FFF71FFA0546306880033FF5A6AEEA
:102AF000FFF718FA401B6428F6D96CE020F48070C8
:102B00003060FFF70FFA0546306840057FF599AE53
:102B1000FFF708FA401B02284FF00300F4D9BDE785
:102B2000306820F080703060FFF7FCF9022D054618
:102B30000CD100BF3068800140F17E80FFF7F2F9D0
:102B4000401B02284FF00300F4D9A7E7306880014A
:102B500040F1B080FFF7E6F9401B02284FF0030078
:102B6000F4D99BE77068216920F0FE4040EA0160DB
:102B7000706066E620F00100C6F89800FFF7D2F911
:102B8000054600BFD6F8980080077FF566AEFFF7D0
:102B9000C9F9401B02284FF00300F3D97EE700BFBC
:102BA000D6F8901021F00101C6F89010D6F89010D8
:102BB00021F00401C6F8901010B3FFF7B3F90546F1
:102BC00041F28837D6F8900080072BD4FFF7AAF996
:102BD000401BB842F6D9032002B0BDE8F08100BF27
:102BE000FFF7A0F9054600BF306880037FF526AEE9
:102BF000FFF798F9401B64284FF00300F4D94DE724
:102C0000FFF790F9054641F2883700BFD6F89000EB
:102C1000800707D5FFF786F9401BB8424FF0030045
:102C2000F4D93BE7B8F1000F7FF413AEB06D20F09C
:102C30008050B0650DE600BFF06848F20C01C0F2AC
:102C40009F1104F1200700EA010C8ECF6FF00F00F6
:102C5000D4E90C5400EB02100022CFF6E07241EAF6
:102C60000C0102EA05520843A2F500124FF07E451E
:102C700040EA032005EA0465104305F17E4540EA79
:102C8000C7602843F060306840F080703060F068C2
:102C900040F08070F060FFF745F90446306880012D
:102CA0000FD4FFF73FF9001B02284FF00300F5D9BE
:102CB000F4E600BFF0684FF6FC71CFF6EE61084015
:102CC000F060002002B0BDE8F0810000002804BFE1
:102CD00001207047B0B50446406A28B10020206149
:102CE00004F1140006E000BF6068B0F5827F03D0F5
:102CF00004F11C00002101600025A56294F85D002C
:102D000020B9204684F85C5000F052F8022084F884
:102D10005D002068D4F80CE00268BEF5E06F22F098
:102D2000400202604EF4006298BF0125B2F5706F58
:102D30001CBF0023A3624FEA053CD4E90135D4E966
:102D4000042103F4827305F404452B4402F00202CB
:102D50001A44A36901F00101E569114403F400720A
:102D6000114405F03802256A114405F08002A56A75
:102D7000114405F40052114301600421626A0EF40B
:102D8000706501EA1341636B45EA0C0502F010021D
:102D9000294303F00803114319434160C16921F439
:102DA0000061C16100200121206684F85D10B0BD82
:102DB000B0B586B0006843F60001C4F20001884255
:102DC0004FF000010591CDE90311CDE9011133D098
:102DD00043F20001C4F20101884254D141F24C0097
:102DE000C4F202004169022441F480514161416909
:102DF000032501F4805100910099016841F002011E
:102E00000160006801A900F002000090009808200D
:102E10000190002003900520059040F20040C4F688
:102E2000000002940495FEF799FF1020CDE90104FB
:102E30000120CDE903051DE041F24C00C4F202007F
:102E4000C16841F48041C160C16801F480410091D2
:102E50000099016841F002010160006800F0020081
:102E6000009000984FF4604001900220CDE90200EC
:102E7000032004900520059040F20040C4F60000B5
:102E800001A9FEF76BFF06B0B0BD00002DE9F043CD
:102E900081B0044690F85D00012811D16068994620
:102EA00016460D46B0F5827F01D1A068D0B194F8E6
:102EB0005C00012806D10227384601B0BDE8F08346
:102EC000022708E0012784F85C70FFF72BF8002D3B
:102ED00018BF002E14D1002084F85C00384601B0E1
:102EE000BDE8F083042084F85D00204629462A4688
:102EF0003346CDF8009000F0EBF801B0BDE8F08368
:102F00008046042084F85D00002020662564A4F833
:102F10004460A4F84660A063A087E0872168C4E904
:102F20001300D4E902204B68B0F5E06F23F480531E
:102F300098BF03F58053B2F5004F4B604AD10A6841
:102F400022F040020A600A6822F480420A600A689D
:102F5000520642D5B4F84610B0F5E06F46D80029C5
:102F60007BD019F1010010D120E000BF007B216C63
:102F70000870206C01302064B4F846000138A4F8D1
:102F80004600B4F84600002867D020688168C90769
:102F9000ECD1FEF7C7FFA0EB08004845F1D342E0B3
:102FA000FEF7C0FFB4F84600002856D020688168BC
:102FB000C907F5D0007B216C0870206C01302064BB
:102FC000B4F846000138A4F84600B4F846000028DA
:102FD000ECD142E00A685206BCD40A6842F04002D2
:102FE0000A60B4F84610B0F5E06FB8D9A9B319F18A
:102FF00001000ED11FE000BFC068216C21F8020B58
:103000002164B4F846000138A4F84600B4F846003C
:1030100018B320688168C907EED1FEF783FFA0EBE3
:1030200008004845F2D303274DE000BFFEF77AFFC2
:10303000B4F8460088B120688168C907F6D0C06836
:10304000216C21F8020B2164B4F846000138A4F881
:103050004600B4F846000028EDD16068B0F5827FE4
:103060000BD1A068B0F5004F02D0B0F5806F04D14D
:103070002068016821F0400101602046494642462F
:1030800001F068FE30B1206E40F020002066202064
:10309000206613E06068B0F5827F0FD1A068B0F5BC
:1030A000004F02D0B0F5806F08D120464FF4C061C8
:1030B0004A46434601F08AFD0028E4D1206E08B15B
:1030C000012708E70027012084F85D0003E70000DE
:1030D0002DE9F04381B0044690F85C00012803D14B
:1030E000022001B0BDE8F08301201E4615460F46C0
:1030F00084F85C00FEF716FF94F85D108146012904
:103100000CD1002F4FF0010018BF002D14D1002169
:1031100084F85C1001B0BDE8F08300BF6068B0F5D2
:10312000827F40F0B180A06800284FF0020008BF05
:103130000429ECD1E5E700BF002EE8D094F85D004B
:1031400004281CBF052084F85D000020206625644B
:10315000A4F84660A4F84460A763E687C4E91300B6
:103160002068A687E1684268B1F5E06F22F48052DA
:10317000134698BF03F58053012E88BF1346436062
:103180000268520603D4026842F04002026062689C
:10319000731EB2FA82F2B3FA83F3DDF8208052098B
:1031A0005B09B1F5E06F43EA020175D931B137F837
:1031B000021BC160A763E08F0138E087012518F189
:1031C000010036D102E000BFFEF7ACFEE08F20B96F
:1031D000B4F84600002800F0CD8020688168890797
:1031E0000CD5E18F51B1012D08D1A16B002531F82B
:1031F000022BC260A163E18F0139E1878168C907B1
:10320000E2D0B4F846100029DED0C068216C012558
:1032100021F8020B2164B4F846000138A4F84600F6
:10322000D2E700BFFEF77EFEA0EB0900404580F02C
:103230009F80E08F20B9B4F84600002800F09A8003
:103240002068816889070CD5E18F51B1012D08D123
:10325000A16B002531F8022BC260A163E18F013917
:10326000E1878168C907DDD0B4F846100029D9D0BC
:10327000C068216C012521F8020B2164B4F84600D6
:103280000138A4F84600CDE70220002184F85C1044
:1032900001B0BDE8F08300BF89B1E18F02294FF68C
:1032A000FE7103D337F8022BC26004E03A78013193
:1032B0000273A06B471CA763E08F0844E0870126D8
:1032C00008F10105E08F18B9B4F84600002851D084
:1032D00020688168890719D5E18FB9B1012E15D110
:1032E000E28FA16B022A07D331F8022BC260A163DF
:1032F000E18F023908E000BF09780173A16B2068F3
:103300000131A163E18F01390026E1878168C90796
:1033100026D0B4F8461019B3B4F84610022913D3D6
:10332000C168226C22F8021B2264B4F846100239EC
:10333000A4F84610B4F84610012910D8416841F4A9
:10334000805141600BE000BF007B216C0870206C55
:1033500001302064B4F846000138A4F84600012684
:10336000FEF7E0FD002DADD0A0EB09004045A9D34C
:10337000032029E020464FF4C05142464B4601F05D
:1033800025FC68B9204641464A4601F0E3FC38B9BD
:1033900020464FF4C06142464B4601F017FC78B11D
:1033A000206E40F020002066202020660120216E43
:1033B00051B10120002184F85C1001B0BDE8F08318
:1033C0000020216E0029F4D1012184F85D10002134
:1033D00084F85C1001B0BDE8F0830000411E0020BD
:1033E000B0EB116F1CBF012070474EF21002CEF2FD
:1033F000000251604EF62351CEF20001F0230B7013
:10340000072190601160704770470000704700000E
:1034100070470000B0B590F83C20012A04BF02209C
:10342000B0BDD1E90232D1E900CE22F47C5223F4BE
:10343000705343EA020448F2FF73CEF6F0730EEACB
:103440000302224303F5006404EA0C0442EA040C7C
:103450000C6903F5C05222404C6942EA0C02224337
:1034600003F5605422400C6B03F5F04323401A43EC
:103470008B6940F2000CCC69CEF6FF7C0CEA03436A
:103480001443D0F800C043F20042C4F20102944554
:1034900043EA040305D042F60042C4F20102944517
:1034A00016D14FF6FF72CDF60F421A40D1E9083E11
:1034B000D1E90A410025CDF6F04505EA045422433E
:1034C00023F008531A432EF000531A4342EA010333
:1034D0000021CCF8443080F83C100846B0BD000014
:1034E00070470000704700007047000070B590F80A
:1034F0003C20012A4FF0020247D080F83D200268AC
:1035000043F2004C54689368C4F2010C42F6004E3A
:103510006245C4F2010E01D0724503D14D6824F416
:1035200070042C434FF68F75CFF6FF550E682C4074
:1035300042F6FF35C4F201053443AA4254600FDC61
:10354000B2F1804F16D040F20046C4F20006B242FB
:1035500010D040F60006C4F20006B2420AD00EE0D7
:10356000724507D044F20006C4F20106B24201D00F
:10357000624504D1896823F08003194391600121D9
:10358000002280F83D1080F83C20104670BD0000FD
:1035900070470000002804BF0120704710B50446A2
:1035A00090F83D0028B9002084F83C00204600F047
:1035B00023F8022084F83D002068211D01F028FD39
:1035C000012084F8480084F83E0084F83F0084F825
:1035D000400084F8410084F8420084F8430084F8F5
:1035E000440084F8450084F8460084F8470084F8D5
:1035F0003D00002010BD000080B582B0006842F69A
:103600000041C4F2010188421CBF02B080BD41F2FA
:103610006000C4F202000168002241F40061016010
:103620000068012100F40060019001981920FEF764
:10363000F1FC192002B0BDE88040FEF7D7BC0000C5
:1036400090F83D1001291CBF01207047022180F82D
:103650003D10016842F6FF30C4F2010081420FDCE8
:10366000B1F1804F1ED040F20040C4F20000814210
:1036700018D040F60000C4F20000814212D01EE0D3
:1036800042F60040C4F2010081420BD044F2000037
:10369000C4F20100814205D043F20040C4F20100AF
:1036A00081420CD188680722C0F201020240062A3A
:1036B0004FF0000008D0B2F5803F08BF704708689F
:1036C00040F00100086000207047000080B590F8CD
:1036D0003C20012A4FF0020200F0A98080F83D2032
:1036E000D0F800C08822DCF80830CFF6CE721A403D
:1036F000CCF808200B686F2B10DD1F22C0F21002DF
:10370000934237DCB3F5005F46DA702B00F092800D
:10371000B3F5805F00F08480D6E000BF2F2B35DD4D
:103720004F2B3FDC302B6FD0402B40F0CD80D1F8B9
:1037300004E0C968DCF82030DCF8202022F0010227
:10374000CCF82020DCF8182022F0F00242EA011127
:1037500023F00A0242EA0E02CCF81810CCF820201E
:10376000DCF808104FF68872CFF6CF72114047315F
:1037700054E000BF3F21C0F210018B423ADC20210F
:10378000C0F210018B423FD0302139E0E3B3102B5F
:103790003AD0202B38D097E060D0B3F1101F33D04F
:1037A00092E000BF502B6DD0602B40F08D80D1F89F
:1037B00004E0C968DCF82030DCF8202022F0100298
:1037C000CCF82020DCF8182022F4704242EA0131C3
:1037D00023F0A00242EA0E12CCF81810CCF82020F8
:1037E000DCF808104FF68872CFF6CF7211406731BF
:1037F00014E000BF4021C0F210018B4204D07021C0
:10380000C0F210018B425FD1DCF808104FF68872CD
:10381000CFF6CF721140194341F00701CCF80810E0
:103820000022012180F83D10002180F83C10104654
:1038300080BD00BFD1E901E3C968DCF8082043EA94
:103840000E0322F47F4243EA01211143CCF8081011
:10385000DCF8081041F07701E0E700BFD1E901E3AF
:10386000C968DCF8082043EA0E0322F47F4243EAE9
:1038700001211143CCF80810DCF8081041F4804114
:10388000CCE700BFD1F804E0C968DCF82030DCF8F0
:10389000202022F00102CCF82020DCF8182022F0B1
:1038A000F00242EA011123F00A0242EA0E02CCF8C9
:1038B0001810CCF82020DCF808104FF68872CFF6EC
:1038C000CF7211405731A9E70122AAE770470000E3
:1038D000F0B581B004460068C5680669B10717D520
:1038E00015F0020114D06FF002010161012121776E
:1038F0008069800704D02046FFF7E8FF06E000BF9C
:10390000204600F0F5F8204600F010FB002020775C
:10391000700719D515F0040016D020686FF0040167
:10392000016102212177806910F4407F04D0204694
:10393000FFF7CCFF06E000BF204600F0D9F8204694
:1039400000F0F4FA00202077300717D515F00800B2
:1039500014D020686FF00801016104212177C0694B
:10396000800703D02046FFF7B1FF05E0204600F0B6
:10397000BFF8204600F0DAFA00202077F00619D5CB
:1039800015F0100016D020686FF0100101610821B9
:103990002177C06910F4407F04D02046FFF796FFDE
:1039A00006E000BF204600F0A3F8204600F0BEFA73
:1039B00000202077F00718BF15F0010006D020681E
:1039C0006FF001010161204600F076FB16F4025F02
:1039D00005F0800718BF002F02D1F00509D410E0D0
:1039E00020686FF4025101612046FFF70FFDF005DA
:1039F00007D537B120686FF4807101612046FFF769
:103A000003FD700609D515F0400006D020686FF060
:103A100040010161204600F051FBB00609D515F0C8
:103A2000200006D020686FF0200101612046FFF7DA
:103A3000EFFCF00209D515F4801006D020686FF471
:103A4000801101612046FFF74DFDB00209D515F444
:103A5000001006D020686FF4001101612046FFF7C6
:103A60003FFD700209D515F4800006D020686FF480
:103A7000800101612046FFF737FD30020CD515F4B7
:103A8000000009D021686FF4000220460A6101B0ED
:103A9000BDE8F040FFF77CBD01B0F0BD80B586B059
:103AA000006842F60041C4F20101884202D006B02B
:103AB00080BD00BF41F24C00C4F20200016841F039
:103AC00001010160006801A900F001000190019866
:103AD0004FF4807001900220CDE902000320049091
:103AE000062005904FF09040FEF738F906B080BDF3
:103AF000704700002DE9F04190F83C30012B04BFE5
:103B00000220BDE8F0814FEAB202052A00F28A8164
:103B1000DFE812F006005000A400F8004C0190010C
:103B200003681D6A1A6AA3F1804622F001021A6234
:103B30001A465C6852F818CF8F68A6F59636D1F809
:103B400000E025F002054FEAB626072E45EA0705F4
:103B50000AD80127B74017F0E50F1FBFCF6825F03F
:103B60000C0527F004073D43072E0BD8012707FA61
:103B700006F616F0E50F1FBF24F44074D1E905677F
:103B800034433C434FF68C76CFF6FE760CEA0607BC
:103B900047EA0E075C609F614F6809695F631D62B9
:103BA0009F6947F008079F619F6927F004079F619D
:103BB0007DE100BF036843F200461D6A1A6AC4F241
:103BC000010622F010021A621A46D3F804C052F815
:103BD000188FB3428E68D1F800E025F0200545EA41
:103BE000061505D042F60046C4F20106B34207D1DD
:103BF000CE686FF0400725F0C00507EA061635438A
:103C0000A3F18046A6F596364FEAB626072E0CD8C5
:103C1000012707FA06F616F0E50F1FBFD1E9056781
:103C20002CF44064374344EA870C48F6FF44CFF64F
:103C3000FF6404EA080444EA0E27C3F804C09F6145
:103C40004F6809699F631D629F6947F400679F6120
:103C50009F6927F480679F6128E100BF036843F2F2
:103C600000461D6A1A6AC4F2010622F480721A62C2
:103C70001A46D3F804C052F81CEFB3428E68D1F84C
:103C8000008025F4007545EA062505D042F6004679
:103C9000C4F20106B34207D1CE6840F2FF473602B4
:103CA00025F44065BE433543A3F18046A6F596361C
:103CB0004FEAB626072E0CD8012707FA06F616F0AB
:103CC000E50F1FBFD1E905672CF44054374344EAA0
:103CD000071C4FF68C74CFF6FE740EEA040747EA11
:103CE0000807C3F804C0DF614F680969DF631D621C
:103CF000DF6947F00807DF61DF6927F00407DF614C
:103D0000D5E000BF036843F200461D6A1A6AC4F298
:103D1000010622F480521A621A46D3F804C052F8FF
:103D20001C8FB3428E68D1F800E025F4005545EAB7
:103D3000063505D042F60046C4F20106B34207D16B
:103D4000CE6844F6FF77360325F44045BE4335433D
:103D5000A3F18046A6F596364FEAB626072E0CD874
:103D6000012707FA06F616F0E50F1FBFD1E9056730
:103D70002CF44044374344EA871C48F6FF44CFF60E
:103D8000FF6404EA080444EA0E27C3F804C0DF61B4
:103D90004F6809691F641D62DF6947F40067DF61CE
:103DA000DF6927F48067DF6180E000BF0368D3F834
:103DB00020C01A6AA3F1804722F480321A621A46A0
:103DC000A7F596375D6852F8508FD1F800E08E68FD
:103DD0004FEAB727072F09D80124BC4014F0E50F9C
:103DE0001EBF4C6925F4803545EA04252CF40037C4
:103DF00047EA06474FF68C76CFF6FE76033606EA9C
:103E0000080646EA0E065D601E654E6809699E64F6
:103E10001F621F6D47F008071F651F6D27F004071D
:103E20001F6544E00121002280F83C200846BDE8DF
:103E3000F08100BF0368D3F820C01A6AA3F180475D
:103E400022F480121A621A46A7F596375D6852F876
:103E5000508FD1F800E08E684FEAB727072F09D8B6
:103E60000124BC4014F0E50F1EBF4C6925F48025E9
:103E700045EA84252CF4001747EA065748F6FF4622
:103E8000CFF6FF6606F5407606EA080646EA0E26F5
:103E90005D601E654E680969DE641F621F6D47F430
:103EA00000671F651F6D27F480671F65090213688F
:103EB000194311600021002280F83C200846BDE82B
:103EC000F0810000002804BF0120704710B50446AF
:103ED00090F83D0028B9002084F83C00204600F00E
:103EE00023F8022084F83D002068211D01F090F89D
:103EF000012084F8480084F83E0084F83F0084F8EC
:103F0000400084F8410084F8420084F8430084F8BB
:103F1000440084F8450084F8460084F8470084F89B
:103F20003D00002010BD00007047000070470000F9
:103F300061B10A1F4FEAB202032A11D8DFE802F08A
:103F40000214181C00F13F0318E000BF90F83E2057
:103F5000012A1CBF01207047022280F83E202CE07D
:103F600000F143030AE000BF00F1400306E000BF98
:103F700000F1410302E000BF00F142031B78012B76
:103F80001CBF01207047032A08D8DFE802F0030BAA
:103F90000F1300BF022280F83F200EE0022280F8BB
:103FA00043200AE0022280F8402006E0022280F846
:103FB000412002E0022280F84220026801F01F0145
:103FC0000120136A00FA01F18B431362136A0B4359
:103FD000A2F18041A1F596314FEAB1210629136281
:103FE00044D8884010F0650F40D0506C42F6FF3145
:103FF000C4F2010140F400408A42506410DCB2F186
:10400000804F1FD040F20040C4F20000824219D01D
:1040100040F60000C4F20000824213D01FE000BF4F
:1040200042F60040C4F2010082420BD044F200008C
:10403000C4F20100824205D043F20040C4F2010004
:1040400082420CD190680721C0F20101014006298B
:104050004FF0000008D0B1F5803F08BF70471068EE
:1040600040F0010010600020704700BF42F6FF30B2
:10407000C4F201008242C2DD43F6FF70C4F20100C7
:10408000824207DC42F60040C4F201008242D3D1F2
:10409000D8E700BF44F20000C4F201008242D1D050
:1040A00044F60000C4F20100824202BF506C40F4AA
:1040B00000405064D3E700007047000070470000E4
:1040C00090F88410012904BF022070472421C0F811
:1040D000881002681168136823F00103136021F04F
:1040E00000530021416613602022C0F8882080F828
:1040F00084100846704700007047000070470000B9
:10410000B0B590F88420012A04BF0220B0BD24225B
:10411000C0F888200268D0F864E0D2F800C01368C4
:10412000BEF1000F23F001031360936823F0606376
:1041300041EA0301916019D09368916847F2EC2E2F
:10414000490FC0F6000E47F2F4251EF80140C0F6F4
:104150000005695CC3F34263E400B4FBF1F11EF8AF
:104160000340EB5CE500B5FBF3F301E00121012323
:10417000A0F86A102021A0F86830C2F800C0C0F88A
:104180008810002180F884100846B0BDB0B590F8C2
:104190008420012A04BF0220B0BD2422C0F8882058
:1041A0000268D0F864E0D2F800C01368BEF1000FD6
:1041B00023F001031360936823F0604341EA030195
:1041C000916019D09368916847F2EC2E490FC0F6C0
:1041D000000E47F2F4251EF80140C0F60005695CA8
:1041E000C3F34263E400B4FBF1F11EF80340EB5C5F
:1041F000E500B5FBF3F301E001210123A0F86A100B
:104200002021A0F86830C2F800C0C0F88810002152
:1042100080F884100846B0BD704700007047000069
:104220007047000070B5016840F62F03CA69044664
:1042300008688E681340202B0CD100F0200306F094
:1042400080555B1917D0616F00297BD02046BDE8EF
:104250007040084740F60F031A420CD00123C1F208
:10426000000306EA030C40F22013C0F200430340AF
:1042700013EB0C0368D1E36E012B05D112F0100390
:1042800018BF10F010034DD1D3020BD516F48003E4
:1042900008D04FF4801220460A62BDE87040FFF754
:1042A000BDBF00BF110606D500F0800106F4000373
:1042B000C91840F03582510640F10E8110F04001DE
:1042C00000F00A81206850E8000F216820F04000CB
:1042D00041E80002DAB1206850E8000F216820F0C0
:1042E000400041E8000292B1206850E8000F2168C8
:1042F00020F0400041E800024AB1206850E8000F79
:10430000216820F0400041E80002002ADAD1202094
:104310000021C4F888002046A167BDE8704000F085
:10432000EBBB00BF102008628868400618D4B4F8C0
:104330005C00B4F85E10B4F85E20002A18BF884212
:1043400040F0068270BD00BFD30718BF10F4807321
:1043500040F0CE80930706F0010E00F1D580DEE03C
:10436000D4F88000006841688AB2002AEAD0B4F824
:104370005C309A42E6D2A4F85E100068800600F134
:104380009E80206850E8000F216820F4807041E88A
:104390000002DAB1206850E8000F216820F4807034
:1043A00041E8000292B1206850E8000F216820F433
:1043B000807041E800024AB1206850E8000F21688F
:1043C00020F4807041E80002002ADAD1206850E829
:1043D000020F216820F0010041E80202BAB3206810
:1043E00050E8020F216820F0010041E8020272B398
:1043F000206850E8020F216820F0010041E8020225
:104400002AB3206850E8020F216820F0010041E83B
:104410000202002ADAD11AE0206850E8020F21686F
:1044200020F0400041E80202DAB1206850E8020FB3
:10443000216820F0400041E8020292B1206850E873
:10444000020F216820F0400041E802024AB12068D2
:1044500050E8020F216820F0400041E80202002AE3
:10446000DAD12020C4F88C000020E066206850E8F3
:10447000000F216820F0100041E80002DAB1206846
:1044800050E8000F216820F0100041E8000292B1CE
:10449000206850E8000F216820F0100041E8000279
:1044A0004AB1206850E8000F216820F0100041E870
:1044B0000002002ADAD1D4F88000FDF7BBF902200F
:1044C0002067B4F85C00B4F85E10401A81B2204650
:1044D000BDE87040FFF710BE110240F1278110F0D7
:1044E000804100F023812046BDE87040FFF794BE74
:1044F00001230B62D4F8903043F00103C4F89030EC
:10450000930706F0010E0AD5BEF1000F07D0022373
:104510000B62D4F8903043F00403C4F89030530792
:104520000AD5BEF1000F07D004230B62D4F89030F7
:1045300043F00203C4F8903013070CD500F02003B9
:1045400053EA0C0307D008230B62D4F8903043F0F1
:104550000803C4F8903013050BD510F0806308D021
:104560004FF400630B62D4F8903043F02003C4F89A
:104570009030D4F89030002B3FF4E4AE12F02002DB
:104580001EBF00F0200006F0805210EB020040F049
:104590006181D4F89000896800F0280001F04001A2
:1045A000401807D12046FFF73BFE0020C4F89000DA
:1045B00070BD00BF206850E8000F216820F49070A3
:1045C00041E80002DAB1206850E8000F216820F4C9
:1045D000907041E8000292B1206850E8000F216815
:1045E00020F4907041E800024AB1206850E8000FC2
:1045F000216820F4907041E80002002ADAD14FF6D9
:10460000FE70CEF6FF7000BF216851E8021F2268DD
:10461000014042E80213C3B1216851E8021F226839
:10462000014042E8021383B1216851E8021F226869
:10463000014042E8021343B1216851E8021F226899
:10464000014042E80213002BDED1E06E012824D1A4
:10465000206850E8000F216820F0100041E80002B7
:10466000DAB1206850E8000F216820F0100041E81E
:10467000000292B1206850E8000F216820F010007D
:1046800041E800024AB1206850E8000F216820F09C
:10469000100041E80002002ADAD12020C4F88C0082
:1046A0000020E06621686067886840064AD500BF40
:1046B000206850E8020F216820F0400041E8020223
:1046C000DAB1206850E8020F216820F0400041E88C
:1046D000020292B1206850E8020F216820F04000E9
:1046E00041E802024AB1206850E8020F216820F038
:1046F000400041E80202002ADAD1D4F8800008B371
:1047000045F28531C0F600018163FDF7CBF8002842
:104710003FF418AED4F88000816BBDE870400847C4
:10472000A16F00297FF492AD0CE600BFD1017FF5A7
:1047300009AEB0F1FF3FC8BF70BD2046BDE8704074
:10474000FFF7DCBC2046BDE87040FFF769BD00BF45
:10475000401A00BF216851E8001F226821F49071BF
:1047600042E80013DBB1216851E8001F226821F400
:10477000907142E8001393B1216851E8001F22684C
:1047800021F4907142E800134BB1216851E8001FF9
:10479000226821F4907142E80013002BDAD14FF621
:1047A000FE71CEF6FF7100BF226852E8022F236827
:1047B0000A4043E80226C6B1226852E8022F236865
:1047C0000A4043E8022686B1226852E8022F236895
:1047D0000A4043E8022646B1226852E8022F2368C5
:1047E0000A4043E80226002EDED12021C4F88C10B6
:1047F0000021E166616700BF216851E8001F22685F
:1048000021F0100142E80013DBB1216851E8001FDC
:10481000226821F0100142E8001393B1216851E8A9
:10482000001F226821F0100142E800134BB12168FB
:1048300051E8001F226821F0100142E80013002B0C
:10484000DAD1022281B220462267BDE87040FFF72C
:1048500053BC00BF626F002A3FF49BAE20469047D6
:10486000216896E610B5D8B10446D0F8880028B97A
:10487000002084F88400204600F026F82420C4F8A4
:1048800088002068A16A026822F00102026011B16A
:10489000204600F04BFC204600F07CFD012801D1B1
:1048A000012010BD2168486820F490404860886865
:1048B00020F02A008860086840F0010220460A6063
:1048C000BDE8104000F0A6BC10B596B0044668469E
:1048D00008303C21FBF7A5FD206843F60001C4F237
:1048E0000101884202D016B010BD00BF0120009027
:1048F000002001906846FDF767FC002818BFFCF710
:104900007BFA41F24C00C4F20200416941F480415B
:104910004161416901F4804111911199016841F0AF
:1049200002010160006811A900F0020011901198C5
:10493000C02011900220CDE912000320149007201E
:10494000159040F20040C4F60000FDF707FA25205C
:1049500000210022FDF75EFB2520FDF747FB16B086
:1049600010BD00002DE9F0410446D0F88800202851
:104970001CBF0220BDE8F0810D4600294FF0010068
:1049800000F0B8801646002A08BFBDE8F08100207C
:10499000C4F8900021209846C4F88800FDF7C2FAB8
:1049A000A4F85460A4F85660A1680646B1F5805F8B
:1049B00002D1206900286BD02F460025B4F856009C
:1049C00000286BD018F101001CD0B8F1000F3DD1C8
:1049D00021680BE017F8010B8862B4F85600013823
:1049E000A4F85600B4F85600002858D0C86900064C
:1049F00040F17A80002FEDD135F8020B00276FF3DC
:104A00005F20E9E7216802E0C869000609D4C869A7
:104A1000000606D4C86900065CBFC8695FEA00608A
:104A2000F2D51FB117F8010B05E000BF35F8020BF6
:104A300000276FF35F208862B4F856000138A4F8AD
:104A40005600B4F856000028E1D128E0216800BFE4
:104A5000C869000608D4FDF765FA801B404545D8B3
:104A600021680868F4E700BF17B117F8010B04E0EC
:104A700035F8020B00276FF35F208862B4F8560008
:104A80000138A4F85600B4F856000028E0D106E03A
:104A90000027B4F8560000287FF494AF2168C86955
:104AA00040061FD4B8F1000F1ED018F101000FD13D
:104AB000C869400616D4C869400613D4C8694006C0
:104AC00010D4C86940064FF00000F1D50FE000BFD8
:104AD000FDF728FA801B404508D820680168C069A6
:104AE0004006F5D5002002E0FDF71CFA0320202146
:104AF000C4F88810BDE8F08170470000FEE70000B0
:104B00002DE9F04140F60006C4F6000604463046A2
:104B10004FF4006100224FF00008FDF7FDF940F668
:104B20007460C2F20000214603220A23FEF7AEF9A8
:104B300030464FF400610122FDF7EEF921786378E9
:104B4000A5780C2643EA012206EA8307900847EA83
:104B5000951605F03F03072F4FF00007A080A671C0
:104B6000E37188BF012784F8847022D847F2FC27BC
:104B70008908C0F60007795CC2F305125140795CE0
:104B800060F305167140795C8B421CBF0220BDE8C2
:104B9000F08100EE100A9FED081AB8EE400A9FED72
:104BA000072A20EE010A20EE020A4FF0010884EDE8
:104BB000020A4046BDE8F08100008038DB0FC940A2
:104BC000FEE70000FEE70000704700002DE9F04717
:104BD00082B000261F4690460D4681468DF8036040
:104BE000FDF7A0F9381A00EB0807FDF79BF940F232
:104BF0000801C2F20001096823225143090DD9F8C6
:104C0000004079430191A168294271D0824618F190
:104C1000010037D0B5F5C06F1CD100BF207B8DF8E7
:104C200003009DF80300FDF77DF9A0EB0A00B842F0
:104C300062D2019801990028A1F101010191D9F8EE
:104C40000010896808BF074611F4C06FE6D100263E
:104C50004EE000BFFDF766F9A0EB0A00B8424BD268
:104C6000019801990028A1F101010191D9F80010E2
:104C7000896808BF07462942ECD10026304602B0B9
:104C8000BDE8F0870026B5F5C06F25D1207B8DF8F3
:104C900003009DF80300A06810F4C06FEDD0207BE6
:104CA0008DF803009DF80300A06810F4C06FE4D0F5
:104CB000207B8DF803009DF80300A06810F4C06FFE
:104CC000DBD0207B8DF803009DF80300A06810F472
:104CD000C06FDBD10CE000BFA0682842CDD0A06837
:104CE0002842CAD0A0682842C7D0A0682842F3D181
:104CF000304602B0BDE8F087D9E900014268B1F55D
:104D0000827F22F0E00242600BD1D9F80810B1F5A1
:104D1000004F02D0B1F5806F03D1016821F040014E
:104D20000160D9F82810B1F5005F07D1016821F4BE
:104D300000510160016841F400510160012089F8CF
:104D40005D00002089F85C000326304602B0BDE813
:104D5000F0870000F0B581B015460E460446FDF719
:104D6000E1F8281A8719FDF7DDF840F20801C2F2D0
:104D700000010968C1F3CB317943009121688A6849
:104D8000120622D50546701C15D000BFFDF7CAF8E3
:104D9000401BB8421CD2009800990028A1F10101E3
:104DA00000912168896808BF07460806EED40CE028
:104DB0008868000609D58868000606D58868000658
:104DC00044BF88685FEA0060F2D4002001B0F0BD03
:104DD000D4E900014268B1F5827F22F0E00242602E
:104DE0000AD1A168B1F5004F02D0B1F5806F03D1AF
:104DF000016821F040010160A16AB1F5005F07D1AF
:104E0000016821F400510160016841F40051016022
:104E1000012084F85D00002084F85C00032001B0CC
:104E2000F0BD00007047000080B5FDF781F8FDF788
:104E300079F847F6D501C2F2E961484341F26E21A3
:104E40004FEAB000C0F28301884288BF80BD40F6BF
:104E50000000C4F600004FF40051BDE88040FDF7AB
:104E600053B800004EF68850CEF20000016841F4BD
:104E70007001016070470000F0B581B040F6385411
:104E8000C2F2000440F214472046C4F60007FCF7C3
:104E90005FFC20466421FCF7ABFB386840F0200043
:104EA00038602046FCF7E8F940F68414C2F20004AA
:104EB000608040F6A450C2F20000FCF7DDF9628881
:104EC000A08040F68C14C2F2000483B22046002178
:104ED00000F076FF40F69C25C2F200052846FFF759
:104EE0000FFE40F63553C2F2000340F63451AA7962
:104EF0001E78C2F20001087046EA0200082A187003
:104F000006D340F63650C2F200000178013101703C
:104F100095ED250A284601F0FDFB40F6D070C2F25F
:104F200000000078022821D001283DD0002860D15F
:104F30009FED360A2046F0EE400AB0EE401A01F02E
:104F4000CBFC04F1640090EC030A40F20C0040F644
:104F50000C11C2F20000C2F200010022FBF730FF88
:104F600095ED230A204600F0BBFE42E094ED3E0A98
:104F700095ED231ADFED250A204601F0ADFC04F182
:104F8000640090EC030A40F20C0040F60C11C2F2EF
:104F90000000C2F200010022FBF712FF95ED230A88
:104FA000204600F09DFE24E095ED230A204600F007
:104FB00097FE94ED120A40F63C70C2F2000000F039
:104FC000DDFC9FED120AD4ED3E0AB0EE401A2046F9
:104FD00001F082FC04F1640090EC030A40F20C0042
:104FE00040F60C11C2F20000C2F200010022FBF7F1
:104FF000E7FE386820F0200140F63810C2F20000C9
:10500000396001B0BDE8F040FEF762BC000000006E
:1050100080B540F2FF7C0268C4F2000C604521DDDF
:1050200040F60003C4F20003984224D043F2004348
:10503000C4F2010398421ED042F60043C4F20103B9
:10504000984218D043F2FF33C4F2010398421CDCAB
:10505000604529DCB0F1804F3CD040F20043C4F2FF
:10506000000335E0B0F1804F05D040F20043C4F2B8
:1050700000039842E6D14B6822F070021A4343F2D3
:10508000FF33C4F201039842E2DD44F2FF33C4F27D
:105090000103984212DC43F20043C4F20103984238
:1050A00018D044F2000311E040F60003C4F20003FC
:1050B00098420FD042F6004308E000BF44F60003D8
:1050C000C4F20103984205D044F20043C4F2010344
:1050D000984203D1CB6822F440721A434B6922F004
:1050E000800E8A6843EA0E03D1F800C00360C262F2
:1050F000A0F18042A2F596324FEAB222072AC0F808
:1051000028C007D8012303FA02F212F0E50F1CBFF2
:1051100009690163012141610169C90708BF80BDB7
:10512000016921F00101016180BD000080B5816A43
:105130000A070DD4CA0716D18A071FD44A0728D4F4
:10514000CA0631D48A063AD44A0658D542E000BF8E
:105150000268D0F838C0536823F4004343EA0C03D4
:105160005360CA07E8D00268D0F82CC0536823F413
:10517000003343EA0C0353608A07DFD50268D0F896
:1051800030C0536823F4803343EA0C0353604A076A
:10519000D6D50268D0F834C0536823F4802343EA9C
:1051A0000C035360CA06CDD50268D0F83CC09368A2
:1051B00023F4805343EA0C0393608A06C4D5026843
:1051C000D0F840C0936823F4005343EA0C03936083
:1051D0004A0614D50268D0F844C05368BCF5801F55
:1051E00023F4801343EA0C03536008D1D2F804C0BF
:1051F000D0F848E02CF4C00343EA0E0353600906DC
:1052000058BF80BD0168C06C4A6822F40022104378
:10521000486080BDB0B582B004460020C4F890005C
:10522000FCF780FE216805460A68120737D56FF043
:105230007E4C20464FF4001100222B46CDF800C0D2
:1052400000F0FAF950B300BF206850E8000F216861
:1052500020F0800041E80002DAB1206850E8000F39
:10526000216820F0800041E8000292B1206850E8F7
:10527000000F216820F0800041E800024AB1206858
:1052800050E8000F216820F0800041E80002002A69
:10529000DAD12020C4F8880060E000BF21680868E7
:1052A000400761D56FF07E4C20464FF4800100220C
:1052B0002B46CDF800C000F0BFF9002854D000BF45
:1052C000206850E8000F216820F4907041E8000247
:1052D000E2B1206850E8000F216820F4907041E8A6
:1052E00000029AB1206850E8000F216820F4907005
:1052F00041E8000252B1206850E8000F216820F414
:10530000907041E80002002ADAD100BF206850E81E
:10531000020F216820F0010041E80202DAB12068A2
:1053200050E8020F216820F0010041E8020292B12A
:10533000206850E8020F216820F0010041E80202D5
:105340004AB1206850E8020F216820F0010041E8CE
:105350000202002ADAD12020C4F88C0003200021A8
:1053600084F8841002B0B0BD2020C4F88800C4F8CE
:105370008C000020E0662067002184F8841002B0D1
:10538000B0BD0000806A0021A0F85E10A0F85610A1
:10539000FEF746BF70B5054605F108041ECC00684F
:1053A000194341EA0403EE69046846F6F311CCF6AA
:1053B000FF712140194331430160416848F2000CFC
:1053C00021F4405111434160AA69C4F2000C6045C8
:1053D0001CBF296A0A4381684FF2FF43C1F2FF13E1
:1053E000194011438160C16AD5F824E021F00F0112
:1053F00041EA0E01C16244F6FF31C4F20001884265
:105400004FF0100314DD44F60041C4F2000188425D
:1054100022D0604528D043F60001C4F20101884241
:1054200038D141F28801C4F202010B687EA22DE05E
:1054300044F20041C4F2000188421DD044F600014C
:10544000C4F20001884225D141F28801C4F2020170
:1054500009680B0916E000BF41F28801C4F202019D
:1054600009688B090EE000BF41F28801C4F2020115
:1054700009688B0A06E000BF41F28801C4F202010C
:1054800009688B0847F2DC22C0F6000203F0030132
:1054900052F82130604542F20040C0F2F40015D0CD
:1054A000B6F5004F24D1082B4FF0010100F2B38074
:1054B000DFE803F0065E6CB164B1B1B16A0000BF11
:1054C000FDF742F9002856D15CE000BF082B4FF0F1
:1054D000010100F2A080DFE803F0059E259E1D9EDD
:1054E0009E9E2300FDF730F9C0B1D5F824E019E005
:1054F000082B4FF0010100F28E80DFE803F0056514
:10550000738C6B8C8C8C7100FDF71EF900285ED1BA
:1055100064E000BFFDF744F90028E6D100217AE0FD
:105520004FF4004047F2C221C0F6000131F81E10CE
:105530006A68B0FBF1F002EB420188424FF00101D2
:1055400069D31303984266D8010E000210EB520093
:1055500041F100010023FAF7AFFE4FF60052A0F52B
:105560004071C0F20F0291424FD3012153E000BFBE
:10557000FDF700F930B1D5F824E007E0FDF710F9A8
:105580000028F8D1002146E04FF4004047F2C22144
:10559000C0F6000131F81E106A68B0FBF1F0510846
:1055A00001EB4000B0FBF2F04FF6EF72A0F11001FA
:1055B000914207D84FF6F0710140C0F34200084411
:1055C00023E000BF012126E0FDF7D4F830B1D5F883
:1055D00024E007E0FDF7E4F80028F8D100211AE004
:1055E0004FF4004047F2C221C0F6000131F81E100E
:1055F0004FF6EF72B0FBF1F0696800EB5100B0FBC1
:10560000F1F0A0F11001914204D82968C86000218E
:1056100001E000BF01214FF00110A86600220846FA
:105620006A67AA6770BD00BF0100000004000000A7
:1056300002000000080000002DE9F04180460068EB
:105640001546C2690E461140891BB1FA81F149091C
:10565000A94223D1069C2CB3611C29D1C1693140D8
:10566000891BB1FA81F14909A94217D1C1693140B9
:10567000891BB1FA81F14909A9420FD1C1693140B1
:10568000891BB1FA81F14909A94207D1C1693140A9
:10569000891BB1FA81F14909A942DFD00020BDE898
:1056A000F08100BFFCF73EFC0320BDE8F08100BFA5
:1056B0001F4607E0C0693040801BB0FA80F0400907
:1056C000A842EBD1FCF72EFCC01BA04200F2AE803A
:1056D000D8F8000001684907ECD5402EEAD0802EAA
:1056E000E8D0C169090700F1A580C1690905E1D5C4
:1056F0004FF400610162D8F8000050E8000FD8F8BC
:10570000001020F4907041E800020AB3D8F80000BD
:1057100050E8000FD8F8001020F4907041E8000223
:10572000B2B1D8F8000050E8000FD8F8001020F40B
:10573000907041E800025AB1D8F8000050E8000F1C
:10574000D8F8001020F4907041E80002002AD2D16D
:105750004FF6FE70CEF6FF70D8F8001051E8021F29
:10576000D8F80020014042E80213F3B1D8F8001045
:1057700051E8021FD8F80020014042E80213A3B10B
:10578000D8F8001051E8021FD8F80020014042E884
:10579000021353B1D8F8001051E8021FD8F80020C6
:1057A000014042E80213002BD6D1D8F86C00012842
:1057B0002CD1D8F8000050E8000FD8F8001020F0E5
:1057C000100041E800020AB3D8F8000050E8000FCA
:1057D000D8F8001020F0100041E80002B2B1D8F86B
:1057E000000050E8000FD8F8001020F0100041E849
:1057F00000025AB1D8F8000050E8000FD8F80010A5
:1058000020F0100041E80002002AD2D1202000211F
:10581000C8F88C00C8F86C10C8F87410C8F890006C
:10582000032088F88410BDE8F08100BF0320BDE8A4
:10583000F08100BF08210162D8F8000050E8000F95
:10584000D8F8001020F4907041E800020AB3D8F8AC
:10585000000050E8000FD8F8001020F4907041E8E4
:105860000002B2B1D8F8000050E8000FD8F80010DC
:1058700020F4907041E800025AB1D8F8000050E8D6
:10588000000FD8F8001020F4907041E80002002AC0
:10589000D2D14FF6FE70CEF6FF70D8F8001051E866
:1058A000021FD8F80020014042E80213F3B1D8F8F3
:1058B000001051E8021FD8F80020014042E802130E
:1058C000A3B1D8F8001051E8021FD8F80020014019
:1058D00042E8021353B1D8F8001051E8021FD8F87B
:1058E0000020014042E80213002BD6D1D8F86C000A
:1058F00001282CD1D8F8000050E8000FD8F800108B
:1059000020F0100041E800020AB3D8F8000050E887
:10591000000FD8F8001020F0100041E80002B2B1EA
:10592000D8F8000050E8000FD8F8001020F0100060
:1059300041E800025AB1D8F8000050E8000FD8F84A
:10594000001020F0100041E80002002AD2D12020EF
:10595000C8F88C0000200821C8F86C00C8F8740052
:10596000C8F8901088F884000120BDE8F08100009C
:1059700040F63C70C2F20000FEF754BC2DE9F04F37
:1059800081B02DED028B88B0BDEEC01A11EE101A59
:105990004CF6CD4948F21F5A44F6D35E41F2597590
:1059A00002900B460020CCF6CC490DF1160CC5F246
:1059B000EB1AC1F2620ECDF2B71542F20F7B00294D
:1059C00048BF4B42A3FB0967FE0806EB8607A3EB23
:1059D000470730370A2B0CF8007033DBA6FB09743D
:1059E000E40804EB8404A6EB440444F030040CEB1C
:1059F0000006642B747027D3A3FB0A477C09A4FB21
:105A00000972D20802EB8202A4EB420242F0300299
:105A1000B3F57A7FB27019D3A3FB0E24A209A2FBBF
:105A20000947A3FB0548FC0804EB8404A2EB4402ED
:105A300042F0300204305B454FEA5833F270C1D86F
:105A400005E000BF013002E0023000E003302D220B
:105A5000002900F10108C8BF2022032808F0030E26
:105A60000CF8002004D20027BEF1000F1FD133E054
:105A700028F00302C2F1000A03AA0CEB0006033A65
:105A8000002400BF331913F8017C315D13F8035C67
:105A900013F8023C043C02F8047FA24502F8011C02
:105AA00053709570EED16742BEF1000F14D0C11B48
:105AB0001CF8011003AABEF1010FD1550CD0791CBE
:105AC000431A1CF80330BEF1020F535404D0B91C22
:105AD000401A1CF800005054B8EEC11A029830EE7B
